:020000040000fa
:10000000f0ff0320f51d0000ff250000132700006e
:10001000512900005329000055290000000000006c
:100020000000000000000000000000005324000059
:100030005327000000000000532400005324000058
:1000400053240000532400005324000053240000d4
:1000500053240000532400005324000053240000c4
:100060005324000053240000532400008126000084
:1000700053240000532400005324000053240000a4
:100080005324000053240000532400005324000094
:100090005324000053240000532400005324000084
:1000a0005324000053240000532400005324000074
:1000b0005324000053240000532400005324000064
:1000c0005324000053240000532400005324000054
:1000d0005324000053240000532400005324000044
:1000e0005324000053240000000000000000000022
:1000f000000000005324000053240000532400009b
:100100005324000053240000532400005324000013
:100110005324000053240000532400005324000003
:1001200053240000532400005324000053240000f3
:100130005324000053240000dd110000dd110000f5
:10014000dd110000dd1100005324000053240000e5
:1001500053240000532400000000000000000000b1
:10016000000000000000000000000000000000008f
:100170000000000000000000951300005324000060
:100180005324000053240000532400005324000093
:1001900000000000532400005324000053240000fa
:1001a0005324000053240000532400005324000073
:1001b0005324000053240000532400005324000063
:1001c0005324000053240000532400005324000053
:1001d0005324000053240000532400005324000043
:1001e0005324000053240000532400002d26000057
:1001f0005324000053240000532400005324000023
:100200005324000000000000000000005324000000
:100210005324000053240000532400000126000052
:1002200053240000532400005324000053240000f2
:1002300053240000532400005324000053240000e2
:1002400053240000532400005324000053240000d2
:1002500053240000532400005324000053240000c2
:020000040000fa
:10026000f8b500bff8bc08bc9e4670477d2300006f
:10027000f8b500bff8bc08bc9e4670475923000083
:020000040000fa
:100280002de98848002002f055f90125bc4b1d706e
:10029000bc4c1023c4f894302023c4f8943040237d
:1002a000c4f894308023c4f894304ff48073c4f8b9
:1002b00094304ff40073c4f894304ff40063c4f8e2
:1002c000943002f0b7fa0021af4802f027fb02f0a9
:1002d00099fa02f0c1f90021ac4802f013fb02f0d8
:1002e00055fa4ff4c051052002f0def902f05afa37
:1002f000a74b1d7002f062fa02f06cfa0021a548cb
:1003000002f012fb4ff40003c4f8983000210846b5
:1003100002f06cfaa04b00221a7001f065ff8ca766
:10032000d7e900670ff23029d9e900890ff2302ba5
:10033000dbe900abc0e102f07dfa984b00221a60c5
:10034000974b1b7813f0010f00f0b6818c4b002205
:100350001a70b6e102f06efa924b93ed007a924b6e
:10036000d3ed007ab4eee77af1ee10fa03dd8d4baf
:100370001a688d4b1a608b4b93ed007a8b4bd3ed43
:10038000007ab4eee77af1ee10fa03d5854b1a68dd
:10039000864b1a60864a1388013b9bb21380ebb9e7
:1003a000814b1a68834b1a60804a1168824a116037
:1003b00092ed007ad3ed007ab4eee77af1ee10fa1e
:1003c00002dd1a687c4b1a60774b00221a60774b6b
:1003d0007a4a1a60764b40f241321a8002f098fa5b
:1003e00007ee900af8ee677a17ee900a02f0d6f858
:1003f00032463b4601f0dcf901f01cff704b1860ff
:100400006c4b186802f0caf857a3d3e9002302f036
:1004100075f828b16b4b01221a706b4bc8221a6019
:100420005e4b6a4a1a606a4b1b78abb9624bd3eddc
:10043000007a5c4b93ed007af1ee046a77eea67acf
:10044000f4eec77af1ee10fa06dd624b00221a6074
:100450005f4b01221a700ce05e4a106800f17803cd
:1004600013605d4a93424add00235a4a1360584a9a
:100470001370584b186800f28a2002f039f93ca337
:10048000d3e9002301f094f93ba3d3e9002300f062
:100490009afc41ec100b01f0eff851ec100b01f05d
:1004a000c9fe07ee100a3d4bd3ed007a67ee877a5e
:1004b0004a4bc3ed007a93ed007adfed497a67ee9f
:1004c000277a17ee900a02f069f842464b4601f08f
:1004d0006ff952465b4600f076fc02f0f7f881b205
:1004e000002002f083f9374b1b7843bb254b4ff4b8
:1004f0000002c3f894203b4b00221a70e6e000f2a1
:10050000023002f0f5f81aa3d3e9002301f050f904
:1005100019a3d3e9002300f056fc41ec100b01f0c5
:10052000abf851ec100b01f085fe07ee100ab5eeaa
:10053000c07af1ee10fa48bfb1ee477ab3e7114b3b
:100540004ff40002c3f89820d5e700bfaff3008056
:10055000a167b3ea73b5853f0ad7a3703d625040e7
:100560006666666666660a403333333333f36a4041
:100570000000000000a073400000000080842e41b5
:10058000450b002000800041cd220000091a000028
:100590004e0b002059290000420b00200c0b0020bc
:1005a000440b0020100b0020200b0020600b0020cb
:1005b000460b0020180b00201c0b002000007a4482
:1005c000140b00204d0b00205c0b00200000a0410c
:1005d000430b0020240b00203f0d0300080b0020dc
:1005e0000000c8423f0b0020554a137803f0fe0379
:1005f0001370544b4ff00042c3f89c20524b1b78b1
:100600005248c370524b1b68524c2360d4ed007aa1
:10061000fceee77a17ee903a4370d4ed007afceee8
:10062000e77a17ee903ac3f30723837001f0d0ff07
:10063000494bd3ed007afceee77a17ee903a9bb285
:1006400007ee903af8ee677ac4ed007ad4ed007abe
:100650004248fceee77a17ee903a4370d4ed007a08
:10066000fceee77a17ee903ac3f3072383703c4b16
:10067000d3ed007a9fed3b7a67ee877ac4ed007a7e
:10068000d4ed007afceee77a17ee903ac370d4ed21
:10069000007afceee77a17ee903ac3f30723037172
:1006a00001f096ff19e0304b1b78002b42d0254b10
:1006b0004ff40072c3f898202c4b1b78002b7ff46a
:1006c0003aae2b4b1b78002b7ff444ae02f032f98c
:1006d0001b4b1b7813f0010f86d1194b1b7813f0bd
:1006e000020f04d0164a137803f0fd031370144b65
:1006f0001b7813f0040f04d0114a137803f0fb03a6
:1007000013700f4b1b7813f0080fd5d00c4a1378d9
:1007100003f0f7031370174b1b68002bc3d0154b66
:100720001a68013a1a601b68002bbcd10e4b0022dc
:100730001a70b8e7034b4ff40072c3f89420bbe77c
:10074000440b002000800041410b0020480b00209a
:10075000180b0020280b0020140b0020500b002049
:10076000040b002000007a444d0b0020450b0020b4
:080770003f0b00205c0b002090
:020000040000fa
:1007780070b582b09f4b1b78a3b99f4b1b78002b99
:1007880040f08f819d4b1b78002b40f091819c4b52
:100798001b78002b00f08a81994b00221a7001f017
:1007a80055fe83e1934b00221a70964b1b7b082b56
:1007b80005d1944c221d04f10c05002103e001f041
:1007c80045fe73e1194612f8010b80ea0103dbb21a
:1007d800aa42f7d1884223d18a4b1b798a4a1278d8
:1007e8009a4220d0884a1370864b03f114020433ce
:1007f80093e8030082e80300844b5b78b3b9814b2c
:100808005b79013b092b50d8dfe813f049006800f9
:1008180072007b009400ab00c500dc002e000801cc
:1008280001f014fe42e101f011fe3fe10021774b97
:100838005970a2f114030b225a75143304f11b02e8
:1008480013f8010b41409342fad16e4ad1766f4baf
:100858001878002300931432082100f5a07001f0e5
:1008680027fa01f0f3fd21e1684b93f871397bb168
:10087800674a0023674ea2f2516500bf52f8040b85
:10088800316841f82300013395f871198b42f5db83
:10089800604b1b684ff05a32c3f8fc2305e05b4bf2
:1008a800d3f80220574bc3f817205b4b04f11b0207
:1008b800002100bf13f8010b41409342fad1514a7d
:1008c800d176524b1878002300931432082100f592
:1008d800a07001f0edf901f0b9fde7e04b4bd3f85a
:1008e8000610484ac2f8171000229a71da71dce73c
:1008f800444a464b53f80a1fc2f816101b799376e0
:10090800d3e7404b9b79414a92f82f239a4209d961
:1009180002333e4a02eb8303d3f80720394bc3f86e
:100928001720c2e7374b00225a7504229a75012214
:10093800da75bae7334b9b79344a92f850269a42d3
:1009480007d9cc33314a52f823202e4bc3f817204d
:10095800abe72c4b00225a7505229a750122da75ed
:10096800a3e7284b9b79294a92f871299a420ad918
:1009780003f5ca73254a02eb8303d3f80120214b00
:10098800c3f8172091e71f4b00225a7506229a7563
:100998000122da7589e71b4b9b791c4a92f850268d
:1009a8009a4207d9cc33174ad2f81710174a42f897
:1009b80023107ae7134b00225a7507229a750122f1
:1009c800da7572e70f4b9b79104a92f871299a42af
:1009d80008d90c4ad2f817100c4a02eb8303c3f863
:1009e800511662e7074b00225a7508229a750122b0
:1009f800da755ae73d0b00203c0b00203b0b00202a
:100a08003a0b00208c0a0020380b00201000002030
:100a180061060020580b0020a00a0020524bd3f892
:100a280074692eb3514b987928b14f4bdb7a012b5f
:100a38002ed04d4b98724c4d0423eb7200232b7330
:100a48006b734a498b7a00934b7a0a7ac979b04713
:100a5800eb7a032b03d90322ea720522aa73434acd
:100a6800414b53f80a1fc2f816101b7993761ce7fe
:100a78003e4a917999720321d972002119735973e9
:100a880004219973d3f80a30c2f8163091760ce72e
:100a9800364b0322da7500221a765a7601229a76a4
:100aa80003e7334b00221a7001f0d0fc02b070bd8e
:100ab800304b00221a702d4b1b7b082b1bd12a4b65
:100ac80000225a70294b03f11402191d03c982e848
:100ad80003001b79012b11d0022b2fd0224b187841
:100ae80000230093244a082100f5807001f0e0f803
:100af80001f0acfcdae701f0a9fcd7e71a4b93f850
:100b08007c3973b9194b00225a759a75da751a76b9
:100b1800164b154a91785976d17899761279da7602
:100b2800dce7124b02225a750f4ad2f8782911795c
:100b380099755179d97592791a76e9e70a4b93f83c
:100b48007c393bb9094bff221a7502225a750022db
:100b58009a75c3e7044b012283f87d2900210748d1
:100b680001f0a6febae700bf100000208c0a0020a2
:100b78003c0b00203b0b0020a00a0020a120000015
:020000040000fa
:100b880030b591ea030f00f18280841a71eb030cef
:100b980005d2121953eb0c03001b71eb0c0140f248
:100ba800000ccff6e07c1cea430f52d0bceb410f9f
:100bb8005fd90c0da4eb135e5ff0010c6cf31f51b1
:100bc8006cf31f53def1200c2ad303fa0cf54019fd
:100bd80041f1000122fa0ef5401923fa0ef5694198
:100be80012fa0cf2cd0208d349085fea30005fea36
:100bf800320228bf42f001020134013c5fea500c86
:100c080072f1004250f1000051eb04514ff400130f
:100c180013eb410f38bf30bd6ff31301002030bd17
:100c2800bef1200ebef1200f1ed223fa0ef5401998
:100c380041f10001cef1200c124218bf012203fa43
:100c48000cf52a43cee711ea5c0f04bf002000210f
:100c580030bd1cea410f04bf01f00041002030bd47
:100c680001f00041002030bd21f4801101eb045156
:100c780030bd004218bf41f00101bceb410f08bf75
:100c880030bd4ff0fe4141f47801002030bd83f0c3
:100c98000043841a71eb030e07d28ef0004e001b3e
:100ca80071eb0e01121953eb0e0340f2000ccff654
:100cb800e07c1cea430fc6d0bceb410f72d90c0d87
:100cc800a4eb135ec90241ea5051c00241f0004151
:100cd800db0243ea5253d20243f00043def1200c18
:100ce80041d312fa0cf522fa0ef203fa0cf542ea95
:100cf800050218bf42f0010223fa0ef3801a994147
:100d0800e30ac4f30a0411f0404f03d418d0013c9d
:100d180040004941013c23d44205c00a40ea415001
:100d2800c90a51eac3715fea500c72f1004250f1ee
:100d3800000051eb045130bd01002fd00020203cb1
:100d48000029f9d0b1fa81fcdcf1200e11fa0cf17e
:100d580030fa0ef510fa0cf02943a4eb0c04d9e78d
:100d68000020d90730bdaef1200ebef1200f0dd204
:100d7800cef1200c03fa0cf533fa0ef32a4318bf10
:100d880043f00103c01a61f10001b9e721f0004105
:100d9800c00a40ea4150c90a01eb045130bd0020a5
:100da800002130bd004218bf41f00101bceb410fea
:0e0db8007ff467afbceb430f3ff463af30bd79
:020000040000fa
:100dc600f0b581ea030e0ef0004e40f20007cff6b2
:100dd600e07717ea41051ebf95ea070f17ea4304b5
:100de60094ea070f00f0c5806d0da5eb545707f583
:100df60080674ff0004646eac12444ea5054c002d8
:100e060046eac32343ea5253d202801a9c4104d2d3
:100e16000018644180185c41013f5b084fea3202ca
:100e26000025002140f001004ff0070604e0801a7b
:100e36009c4136d340416441801a9c4136d340419f
:100e46006441801a9c4136d340416441801a9c41da
:100e560036d340416441801a9c4136d340416441b7
:100e6600013e17d0801a9c4136d340416441801a16
:100e76009c4136d340416441801a9c4136d340415f
:100e86006441090201eb156190ea052520f0ff0097
:100e96004540cce7801a9c4156d335e080185c412a
:100ea600c8d20018644180185c41c8d20018644159
:100eb60080185c41c8d20018644180185c41c8d2d1
:100ec6000018644180185c41c8d200186441013e94
:100ed60017d080185c41c8d20018644180185c4164
:100ee600c8d20018644180185c41c8d20018644119
:100ef600090201eb156190ea052520f0ff00454047
:100f0600cce780185c411fd3420918bf44f00104a6
:100f1600490101ebd56100f01f0000eb451021f4fb
:100f2600801141ea0e01013041f10001244208bf5f
:100f360020f00100b7f5006f3eda013f49dd01eb15
:100f46000751bde8f0407047490101ebd56100f05b
:100f56001f0000eb451021f4801141ea0e01b7f5a0
:100f6600006f29da013f34dd01eb0751bde8f0409f
:100f76007047004218bf41f00101124218bf43f00a
:100f86000103b7eb410f2cbfb7eb430f1ce0b7ebe8
:100f9600410f04bfb7eb430f16e017ea410f04bf3a
:100fa60017ea430f10e017ea410f12d017ea430f72
:100fb60002d0b7eb430f0cd04ef0fe4141f4700166
:100fc6000020bde8f04070474ff0fe4141f4780143
:060fd600f6e77146f4e7a6
:020000040000fa
:100fdc00cc0a00201c00000000000000480b002080
:100fec0005000000010000000100000000000000ee
:100ffc00500b002005000000010000000200000062
:10100c0000000000e009002030000000000000009b
:10101c008c0a0020200000000000000010000020be
:10102c008009000000000000380b002006000000c2
:10103c0000000000580b002004000000010000001c
:10104c0000000044f40a002008000000000000002a
:10105c00ac0a002020000000000000003c0a002028
:10106c0050000000000000003e0b002001000000ba
:10107c0000000000e80a00200c0000000000000046
:10108c00100a00202c00000000000000fc0a0020c8
:10109c0008000000000000003f0b002001000000d1
:1010ac0000000000040b00200800000000000000fd
:1010bc000c0b00200800000000000000140b0020a6
:1010cc000400000000000000400b002001000000a4
:1010dc0000000000410b0020010000000000000097
:1010ec00420b00200100000000000000180b002043
:1010fc0004000000000000001c0b00200400000095
:10110c0000000000200b0020040000000000000084
:10111c00430b00200100000000000000240b002005
:10112c000400000000000000440b0020010000003f
:10113c0000000000280b002004000000000000004c
:10114c00450b002001000000010000000100000020
:10115c004d0b002001000000010000000100000008
:10116c005c0b00200400000001000000c80000001f
:10117c00460b0020020000000100000041030000ab
:10118c004e0b0020010000000100000001000000d7
:10119c00600b0020040000000100000000007a44f5
:1011ac002c0b00200800000000000000900900201b
:1011bc005000000000000000340b00200400000070
:1011cc00000000000000000000000000666666667b
:020000040000fa
:1011dc004ff086439b7d002b00f0d38010b54ff071
:1011ec0086435b8b13f0020f16d0664bff2283f8fd
:1011fc002020022283f82120624b93f820305bb22e
:10120c00b3f1ff3f00f08a805e4b93f820305bb265
:10121c00062b00f09d8010bd4ff086435b8b13f0c6
:10122c00010f07d0574bff2283f82020022283f8ae
:10123c002120e1e74ff086435b8b13f0040f07d0be
:10124c00504bff2283f82020012283f82120d3e782
:10125c004c4b93f820305bb2032b41d0042b10d0b5
:10126c00022bc9d1474b1b692bb10021454b9888e8
:10127c0000f08effc0e70121424b988800f088fff8
:10128c00bae7404a93691269934208d03d4a916883
:10129c00581c9061ca5c4ff086439a62ace7394b9c
:1012ac005b697bb1374b9b885b0043f001034ff0cc
:1012bc0086425362d369002bfcd1324b032283f854
:1012cc00202099e74ff08642536843f44033536033
:1012dc00d369002bfcd12b4b062283f820208be703
:1012ec00284a5369013bd2699a4209d04ff0864390
:1012fc00986a244bd968da69541cdc6188547be702
:10130c004ff08642536843f4e0235360d369002bbb
:10131c00fcd11c4b062283f82020e7e7194b002256
:10132c0083f820204ff08642536843f440335360d7
:10133c00d369002bfcd14ff0864383221a76114bd4
:10134c005b6a002b3ff467af0e4a906a984762e7de
:10135c000c4b002283f8202083f821204ff0864389
:10136c0083221a761a46538b03f03003102bfad1d2
:10137c00044b5b6a002b3ff44eaf024a906a9847cd
:08138c0049e77047100a002038
:020000040000fa
:101394002de9f04784b04ff084431c6d14f0007fb6
:1013a4001cbf4ff000721a6514f0010f62d04ff0a9
:1013b400844301221a655a6d22f001025a65d3f85a
:1013c400a43013f07f0f55d04ff08443d3f8a450ca
:1013d400c5f305252b014a4ad268d718d15811f014
:1013e400804fd15805eb8500464e56f8200014bfb7
:1013f40021f06041c1f38a410160d2587b6813f443
:10140400001f02d112f0005f71d105eb85033d4a44
:1014140002eb83031b6900221a707e683a4b0fcbe0
:101424000df1100c0ce90f00c6f30346664416f8e0
:1014340010ac344e4fea850808eb050906eb890920
:10144400524607f10801d9f8040001f08ff9d9f8e0
:10145400083083f800a0d9f80c300bb17a681a80f0
:101464004ff08443c3f8a850284b1b6813b1274a94
:101474005068984714f4007f20d04ff084434ff411
:1014840000721a655a6d22f400725a65d3f8d82096
:10149400d3f8e03013f0010f0ad012f0010f07d097
:1014a4004ff08442d2f8e03023f00103c2f8e03078
:1014b400164b9b6913b1154ad069984714f4006f11
:1014c40012d04ff084424ff400631365d2f8c43055
:1014d400c3f30423d2f8c420c2f30442934203d2d8
:1014e4000133dbb29a42fbd104b0bde8f08705ebcf
:1014f4008503044a02eb83031b6901221a708ce7fb
:101504003c0a0020640a0020c8280000ac0a00201d
:020000040000fa
:10151400504b00221a7403f500634f4a5a621a466c
:10152400536813f0080ffbd14c4b4d4a9a621a468c
:10153400536813f0100ffbd1484b4a4a1a631a46fa
:10154400536813f0400ffbd1444b4222c3f884206c
:101554001a4600bfd2f8843013f0400ffad0424b41
:1015640000229a6377225a631a46d36b13f0040f4e
:10157400fbd13d4b022283f830201a46d36b13f083
:10158400020ffbd1384a136c03f00303032bfad187
:10159400364b01225a711a46d37813f0010ffbd04f
:1015a4002e4b334a1a621a46536813f0040ffbd1c8
:1015b4002a4b4122c3f8a4201a4600bfd2f8a43013
:1015c40013f0400ffad0254b4422c3f8ec201a46fe
:1015d400d2f8ec3013f0400ffad0204b4122c3f87c
:1015e400f4201a46d2f8f43013f0400ffad01b4b13
:1015f4004122c3f808211a46d2f8083113f0400feb
:10160400fad0164b4122c3f820211a46d2f82031d1
:1016140013f0400ffad0114b4122c3f824211a468b
:10162400d2f8243113f0400ffad00c4b4122c3f806
:1016340028211a46d2f8283113f0400ffad00b4b68
:101644006ff07f421a6144f2ff725a6140f28132b4
:101654001a6270470014004006010100001c00409b
:10166400060130000601020000100040000800409e
:041674000701010069
:020000040000fa
:101678002de9f84355ec104bc5f30a53013b40f2f2
:10168800fd729342a84625f0004758d844a3d3e9f1
:10169800002310ee100a394610ee106a00f084f8a4
:1016a8003b4b0022fff76cfa00f0e6fdc30721d49c
:1016b80018bb32463b463046394600f075f80246bc
:1016c8000b463448082100f093fa02460b46304690
:1016d800394600f069f832463b46fff751fa0d46a5
:1016e800044608f00041224681ea050343ec102b2a
:1016f800bde8f88305f100431d4600f0f5ff1ea381
:10170800d3e900238046894600f04ef802460b468e
:101718003046394601f012f919a3d3e900230646e9
:101728000f464046494600f03ff802460b46304611
:101738003946fff725faa84606460f46b9e7164b7d
:1017480000229f4208bf944210ee10ca02d1134be8
:1017580021221a601ceb0c0048eb08016ff40013ff
:101768004ff0ff328b4208bf824202d345ec104b48
:10177800bee79fed050bbbe7000000000022094013
:101788009ee59e4befaee23e000000000000f87fb1
:101798000000e03fd82300000000f07f300b00205d
:0817a80083c8c96d305fd43f16
:020000040000fa
:1017b000f0b540f2ff7681ea030c16ea115e1ebf17
:1017c000b64516ea1355b54252d021ea465141f4c6
:1017d0008011a1fb024723ea465343f48013ae4431
:1017e000a0fb03650cf0004c36197d41a1fb0347bb
:1017f00047f10003a0fb0217f619654153f10003fe
:10180000094218bf46f0010640f2fe74b3f5007fae
:1018100013d2aef5806ea64523d24cea03312803dd
:1018200041ea155140ea16503203450872f1004270
:1018300050f1000051eb0e51f0bdaef2ff3ea64557
:101840000fd24ceac321e80241ea555140ea565012
:10185000f202450872f1004250f1000051eb0e51c6
:10186000f0bd1eea0e0f2dd50cf000410020f0bd9a
:1018700016ea115f04bf01f000410020004218bfca
:1018800041f0010116ea135f04bf03f00043002298
:10189000124218bf43f0010306ea1354b44218bfc2
:1018a000b64503d00cf000410020f0bd21f000410e
:1018b00023f00043b1eb065f0cd8b3eb065f09d809
:1018c00041b13bb10cf0004141f0fe4141f47001e7
:1018d0000020f0bd40f20001c7f6f8710020f0bd15
:020000040000fa
:1018e0002de9f84f8b46924698469df828709df852
:1018f0002c609df830503f4bd3f800903e4c207048
:10190000012363703d4800f02dfaa770e670257141
:101910000223e372002323736373a373a371e37140
:101920002372637284f82fb384f850a6b8f1000fc5
:1019300003d009f00f03012b13d02f4b002283f8a3
:1019400071292d4a0d9bc2f874394ff00053c2f82b
:1019500078391b78112b2cd0274b002283f87c2957
:101960003fe0c9f30219b9f1010fe6d184f871899a
:1019700000f0baff0028fbd1214b1968d1f8fc33e5
:10198000b3f15a3f09d01f4b03eb8808002200bf78
:1019900043f8042b4345fbd1d3e70b46194a01eb2f
:1019a000880800bf53f8041b42f8041b4345f9d1d3
:1019b000c7e74ff000535b78822bcdd14ff0005337
:1019c0009b78132bc8d14ff00053db78842bc3d105
:1019d000094b012283f87c294ff00053df711e72fe
:1019e0005d72054b002283f87d2900f033fdbde8d0
:1019f000f88f00bf0440800010000020e0090020a4
:081a0000580b002061060020d4
:020000040000fa
:101a080010f0010f66d008b5394b1b78f3b100f020
:101a18006fff07ee900af8ee677a9fed367a67ee69
:101a2800877a9fed357a67ee877a344bc3ed007a73
:101a38004ff4c0510a2000f033fe2d4b00221a70db
:101a480000f0acfe2e4b01221a7008bd00f050ffca
:101a580007ee900af8ee677a17ee900a00f09afd02
:101a68001da3d3e90023fff79ffe1da3d3e900239d
:101a7800fff7a5f91ca3d3e9002300f05fff00f0ee
:101a8800d5fb9fed207a07ee900ac7ee877a1e4baa
:101a9800c3ed007ad3ed007a9fed1c7a67ee877a62
:101aa800dfed1b6a87eea67a83ed007ad3ed007a24
:101ab800f5eec07af1ee10fa44bf00221a604ff436
:101ac800c051052000f0ecfd094b01221a7000f00e
:101ad80065feb7e7704700bfcdcccccccccc13406b
:101ae8000ad7a3703d625040000000000088a34060
:101af8004e0b00200080bb4300008037100b0020f5
:101b08003f0b00200000c842040b0020000057448f
:041b180000009644ef
:020000040000fa
:101b1c0030b4344b012083f84200422183f8441046
:101b2c00412483f84540402283f8462083f847201f
:101b3c00472583f8485083f8494083f84a1083f8c6
:101b4c004b2083f84c2083f84d2083f84e2083f8eb
:101b5c004f2083f8502083f8512083f8522083f8cb
:101b6c00532083f8560083f8570083f85b2083f8e2
:101b7c003100102083f83200112083f834008820c3
:101b8c0083f83b001848c3f880004ff44050c3f86a
:101b9c00900083f8c01083f8c32083f8c42083f826
:101bac00c52083f8c62083f8c72083f8c82083f8a3
:101bbc00c92083f8ca2083f8cb20452083f8cc00b9
:101bcc0083f8cd0083f8ce2083f8cf2083f8d6108d
:101bdc0083f8d72083f8df20222283f8b62030bc8c
:0c1bec00704700bf00800041f00f8080b7
:020000040000fa
:101bf800f8b58c1e00ebc40416461f460d46d4e902
:101c0800022330463946fff7cffdd4e90023fef71b
:101c1800b7ff022d02460b4645d030463946fff73e
:101c2800c3fd54e90223fef7abff032d02460b4622
:101c380039d032463b46fff7b7fd54e90423fef797
:101c48009fff042d02460b462dd030463946fff73c
:101c5800abfd54e90623fef793ff052d02460b461c
:101c680021d030463946fff79ffd54e90823fef797
:101c780087ff062d02460b4615d030463946fff73a
:101c880093fd54e90a23fef77bff072d02460b4616
:101c980009d030463946fff787fd54e90c23fef793
:101ca8006fff02460b4630463946fff77dfdf8bd0b
:020000040000fa
:101cb800f8b59df818c0bcf1010f01d90020f8bd96
:101cc8004ff08443d3f8c43013f4001f3fd14ff0d2
:101cd8008443d3f8c440c4f3044426011d4b9f69d0
:101ce800bd19b0f5006f26bf20f0604040f080407d
:101cf8008004b8510b46082928bf082318046860d7
:101d08001cf0fd0f1ed111461a4605f1080000f01f
:101d18002bfd114a13780133dbb213706a6842ea6b
:101d2800036343f400036b60012000fa04f44ff0ee
:101d38008443c3f8e040c3f8d0405a6d42f40072bf
:101d48005a65bce7bb5943f00053bb51e1e700209b
:0c1d5800b5e700bf3c0a00203e0b002055
:020000040000fa
:101d640038b504463022002100f078fd4ff084435a
:101d740001229a611a46936913f0010ffbd04ff0c8
:101d840084439a6942f002029a611749cc60a2b274
:101d940042f0004242f48032c3f8a02004f1100261
:101da4008a6192b242f08072c3f8c02004f120022a
:101db400ca6192b242f48032c3f8f02004f12802de
:101dc4000a620a4d03cda062e16292b242f400328b
:101dd400c3f884209a6922f001029a611a46936931
:101de40013f0010ffbd138bd3c0a00203c29000050
:020000040000fa
:101df40008b51b4b98471b4b9847eff3108172b6fd
:101e0400194ad2f8883043f47003c2f88830bff31b
:101e14004f8fbff36f8f01b962b6144c20236360f8
:101e240000f0a0fb124b23f07f030f4a9360114b89
:101e34009847a36823f00103a3602346da6812f0ed
:101e4400010ffbd1094b5a6842f004025a60012287
:101e54009a60094b9847094b9847fef70ffafee73b
:101e6400572900005729000000ed00e00060004100
:101e740000000000452000005729000057290000f9
:020000040000fa
:101e840038b54ff0844301229a611a46936913f0de
:101e9400010ffbd04ff084439a6942f002029a6129
:101ea400144ada612b22c3f8802001221a629a694b
:101eb40022f001029a611a46936913f0010ffbd1d3
:101ec4004ff0844300249c650122da654ff00072d0
:101ed4005a65094d2c606c60ac6028222146074885
:101ee40000f0bcfcec602c616c61ac61ec612c62b8
:101ef4006c6238bd000502003c0a0020640a002020
:020000040000fa
:101f04001a4ad36823f4e0631b041b0c43f0bf6339
:101f140043f40033d360bff35f8f62b6144be02207
:101f240083f80b234ff40061196083f83e234ff0cc
:101f34008040586083f83f234ff00040586083f896
:101f440040230120986083f841230220986083f89d
:101f54004e234ff48040986083f86b23d96083f854
:101f640077234ff40002da60704700bf00ed00e011
:041f740000e100e0a8
:020000040000fa
:101f7800184b01221a801a46136b13f0010ffbd17c
:101f88004ff080131b681a0902f07002d90001f49f
:101f9800e061c3f382030a431a430e4ba3f84820b7
:101fa8004ff400721a801f22da7203221a7241f665
:101fb80005029a800b22da8004229a72072283f89b
:101fc8002e20012283f82d201a46136b002bfcd1fa
:081fd800704700bf001c00432c
:020000040000fa
:101fe0004ff0864301221a601a46d369002bfcd1b8
:101ff0004ff086434ff480725a601a46d369002b23
:10200000fcd14ff08643e822da600c4a1a601a4687
:10201000d369002bfcd14ff0864310225a831a4615
:10202000d369002bfcd1064b002283f8212083f8d2
:1020300020204ff0864383229a7570479600200037
:04204000100a002062
:020000040000fa
:102044000e4a38b5002313600d4a0e4c13600e4a35
:102054000e4d13600e4a13600e4a13600e4a53620b
:1020640013610123936000f076fc00f074fcac4231
:1020740000d338bd54f8043b9847f8e7340b0020ec
:102084009c0900206c0200009809002070020000e6
:0c2094009009002094090020a009002001
:020000040000fa
:1020a000124b93f87d3903b97047104b002283f827
:1020b0007d29d3f8782901211170d3f878290221dc
:1020c0005170d3f8782903219170d3f8783904221c
:1020d000da70bff34f8f0649ca6802f4e062054b1d
:1020e0001343cb60bff34f8f00bffde7100000200c
:0820f00000ed00e00400fa0518
:020000040000fa
:1020f800144b01221a801a46136b13f0010ffbd1ff
:102108004ff080131b689a0c02f07002d90a01f490
:10211800e061c3f302430a431a430a4ba3f8482079
:1021280000221a800122da7203221a7241f6030190
:102138009980da80072283f82e201a46136b002b29
:08214800fcd1704700200043a8
:020000040000fa
:10215000f0b59df81440ecb94ff0844cdcf8a45075
:10216000c5f305250c4cae007719bf0004eb070e34
:10217000e051cef80420cef80810cef80c30069bc3
:10218000cef81030dcf8543043f00103ccf8543072
:0c219000012000e00020f0bd640a0020e7
:020000040000fa
:10219c00114b00229a61da614ff0864383221a7642
:1021ac005a6822f480225a601a46d369002bfcd15b
:1021bc0069b1094b032283f8202041ea40014ff01a
:1021cc00864359621a46d369002bfcd17047024be7
:0c21dc00042283f82020f0e7100a002005
:020000040000fa
:1021e80010b50e4b4ff48062c3f898204ff40002ec
:1021f800c3f8982000200a4908704ff40061c3f81a
:1022080098100021074c2160074c2160c3f89820e2
:10221800014600f0e7fa00f0fdfa10bd0080004129
:0c222800400b00200c0b0020080b0020d5
:020000040000fa
:1022340001f000428b1aa3f16051b1f5801f0adb53
:10224400b1f17f6f09d242eac102c10071f10041cc
:1022540042eb507070471046704701285b4113f5fc
:10226400001f02d842f0ff407047c90041ea507095
:0c227400104340f4800040f080407047b0
:020000040000fa
:10228000c1f30a5340f21e42d21a0edd202a0ad8a8
:10229000cb0243ea505040f00040d04090eae17059
:1022a000b0ebe1707047002070474b00004218bf50
:1022b00043f0010313f5001f88bf21f0004111f026
:0a22c000004058bf6ff00040704767
:020000040000fa
:0222ca0070475b
:020000040000fa
:1022cc0010f0010f04d00f4a137843f0040313707d
:1022dc0010f0020f04d00b4a137843f0080313706c
:1022ec0010f0400f04d0074a137843f00203137028
:1022fc0010f0800f04d0034a137843f001031370dd
:08230c00704700bf440b0020e4
:020000040000fa
:102314000f4b01221a801a46136913f0010ffbd1e7
:102324000b4b4ff401421a8000221a621a461369b9
:1023340013f0200ffbd1064b00225a621a46136990
:1023440013f0400ffbd1024bc3225a81704700bfe8
:042354000024004021
:020000040000fa
:1023580010b5054c227832b9044b13b10448aff3d9
:1023680000800123237010bdcc0a0020000000006b
:102378000000000008b5034b1bb103490348aff345
:10238800008008bd00000000d00a00200000000006
:020000040000fa
:102398000d4b01221a601a46136913f0010ffbd185
:1023a800094b10221a6003221a734ff4f0729a83b1
:1023b80033229a72054a0021116001225a721a4684
:1023c8001369002bfcd1704700380040fc0a00203c
:020000040000fa
:1023d800555555555555c5bfb01011111111813faf
:1023e8001a3e011aa0012abf63f024a5e31dc73ec7
:1023f800abc05d4b45e65abe30d46a683c12e63d38
:102408009c4908dc20e46abd95df9369ff80e83cbd
:020000040000fa
:102418004ff08443586c20f4605020f018004004ba
:10242800400c9b6913f0010f0ed04ff084439a695a
:1024380042f002029a619a6922f001029a611a46f0
:0a244800936913f0010ffbd17047f8
:020000040000fa
:02245200fee7a3
:020000040000fa
:1024540000b583b000221146084800f079f9084815
:10246400084b01930023009300f10e03021d00f1b9
:102474000c01fff76bfe03b05df804fb8d24000034
:082484008c0a0020390b002036
:020000040000fa
:10248c0008b5fff7c3ff10f0070001d0072809d1ea
:10249c00064b1b68b3f5a07f2cbf054b054b0122e7
:1024ac001a7008bdfff7d0fffbe700bf8c0a0020b5
:0824bc003d0b00203b0b00204a
:020000040000fa
:1024c4000c4b01221a701a7812f0010f03d09a688b
:1024d40012f0010ff7d1074b06225a704b229a8152
:1024e4001a7842f002021a701a46936813f0020f27
:0824f400fbd1704700240043f6
:020000040000fa
:1024fc004ff4001c1ceb410f98bf1ceb430f11d881
:10250c0051ea030c50ea4c0c5cea020c0ad004d2df
:10251c009042994180414042704782428b418041b8
:08252c00404270470020704797
:020000040000fa
:1025340008b500f0cff9fff7effafef7e9fffff770
:1025440029fffff7c0fefff715fdfff799fcfff722
:10255400d1fdfff743fdfff7dbfefff7b1fffff708
:04256400cffc08bde3
:020000040000fa
:1025680070b50a480a4d4ff6ff76016811b94368fd
:1025780003b970bd83684268334000f10c0455f814
:1025880023302046984704eb8000eee7dc0f00007c
:042598004c280000cb
:020000040000fa
:10259c00c0f3c75191b142004fea40704fead201eb
:1025ac004fea310101f16051b2f17f4f38bf7047f2
:1025bc0001f1605118bf41f40021704710f0004147
:0425cc000020704734
:020000040000fa
:1025d00010b5044642780021007800f09bf8a278fc
:1025e0000121207800f096f8e2780221207800f0ae
:0e25f00091f822790321207800f08cf810bdbc
:020000040000fa
:0225fe00fee7f6
:020000040000fa
:1026000008b5084b93f82e00012283f82e20064bc4
:102610001b682bb1c0b2044a516800f00100984712
:0c26200008bd00bf001c0043f40a0020ad
:020000040000fa
:10262c0008b5084b5b7a63b1064a937a33219172f1
:10263c0003f0ff002bb1044b1b6813b1024a516825
:0c264c00984708bd00380040fc0a002040
:020000040000fa
:1026580000b585b0074b0393012302930022019232
:102668000093134603211220fff736f905b05df8f1
:0826780004fb00bf75280000ff
:020000040000fa
:1026800008b5074a908980b2064b58604cf2ff317a
:1026900091811b6813b1034a9168984708bd00bf38
:0826a00000240040e80a0020bc
:020000040000fa
:1026a800074a93889bb223f4f85323f01f0301438e
:1026b8000b439380136b13f0040ffbd1704700bfdb
:0426c800001c0043af
:020000040000fa
:1026cc000b0d40f21e42d21a09dbcb0243ea5050ea
:1026dc0040f00040202a28bf2022d04070474900fb
:0426ec008041704772
:020000040000fa
:1026f00010f0004160b148bf40420a0d02f21d4295
:10270000b0fa80f3d21a9840c30a400503eb025195
:02271000704710
:020000040000fa
:02271200fee7e0
:020000040000fa
:10271400064b93f82f33834206d9032904d8034b7d
:1027240003eb80000844c273704700bf1000002010
:020000040000fa
:1027340010b50023934206d113f0030018bf012003
:0e27440000eb930010bdc45ccc540133f2e7ef
:020000040000fa
:02275200fee7a0
:020000040000fa
:1027540010b428b1044b43f8320003ebc2035960b0
:0c2764005df8044b704700bfac0a002079
:020000040000fa
:102770005ab110b40a44431e11f8014b03f8014f3b
:0c2780009142f9d15df8044b704770479e
:020000040000fa
:10278c00044a138843f002031380136b002bfcd113
:08279c00704700bf001c004360
:020000040000fa
:1027a400044a137d43f002031375136b13f4006f93
:0827b400fbd17047001c00433b
:020000040000fa
:1027bc00044a138843f002031380136b002bfcd1e3
:0827cc00704700bf002000432c
:020000040000fa
:1027d400044a137d43f002031375136b13f4006f63
:0827e400fbd170470020004307
:020000040000fa
:1027ec004ff6f0730b40034a1382936813f0040ff7
:0827fc00fbd1704700240043eb
:020000040000fa
:10280400044a138843f002031380136913f0020f80
:08281400fbd1704700240040d5
:020000040000fa
:10281c00044a136843f002031360136913f0020fa8
:08282c00fbd1704700380040a9
:020000040000fa
:10283400044b9b6813f0100f02d1024ba5221a73ac
:08284400704700bf00200040b6
:020000040000fa
:10284c0087280000352700004d2900004d29000085
:04285c004d29000002
:020000040000fa
:1028600032b1c9b20244034603f8011b9342fbd1c3
:04287000704700bfee
:020000040000fa
:1028740008b510b900f016f808bd042000f00af8f5
:02288400fae771
:020000040000fa
:102886000a440023914201d10020704701f8013b20
:02289600f8e761
:020000040000fa
:10289800024b0322da729873704700bf10000020c1
:020000040000fa
:1028a800024b0322da7206229a7370471000002046
:020000040000fa
:1028b80010b1024b9861d961704700bfac0a002083
:020000040000fa
:1028c8000001020304050607080c10141820304004
:020000040000fa
:1028d800024b40f204521a80704700bf004000418a
:020000040000fa
:1028e800024bd86ac0f38000704700bf0040004127
:020000040000fa
:0c28f800014bb3f840007047001c004387
:020000040000fa
:0c290400014b186059607047f40a002075
:020000040000fa
:0c291000014bb3f840007047002000436a
:020000040000fa
:0c291c00014b186099607047e80a002029
:020000040000fa
:0c292800014b186059607047fc0a002049
:020000040000fa
:0829340008b5fdf71fff08bd07
:020000040000fa
:08293c005201520912011209b7
:020000040000fa
:0829440083f00043fef71eb909
:020000040000fa
:04294c0000207047b0
:020000040000fa
:02295000fee7a0
:020000040000fa
:02295200fee79e
:020000040000fa
:02295400fee79c
:020000040000fa
:022956007047c8
:020000040000fa
:022958007047c6
:020000040000fa
:02295a007047c4
:00000001FF
