:020000040000fa
:10000000f0ff0320d10d00009513000097130000ae
:100010009b1300009d1300009f13000000000000d0
:10002000000000000000000000000000a11300001c
:100030009913000000000000a1130000a1130000ac
:10004000a1130000a1130000a1130000a1130000e0
:10005000a1130000a1130000a1130000a1130000d0
:10006000a1130000a1130000a1130000d51100008e
:10007000a1130000a1130000a1130000a1130000b0
:10008000a1130000a1130000a1130000a1130000a0
:10009000a1130000a1130000a1130000a113000090
:1000a000a1130000a1130000a1130000a113000080
:1000b000a1130000a1130000a1130000a113000070
:1000c000a1130000a1130000a1130000a113000060
:1000d000a1130000a1130000a1130000a113000050
:1000e000a1130000a11300000000000000000000a8
:1000f00000000000a1130000a1130000a1130000e4
:10010000a1130000a1130000a1130000a11300001f
:10011000a1130000a1130000a1130000a11300000f
:10012000a1130000a1130000a1130000a1130000ff
:10013000a1130000a1130000a1130000a1130000ef
:10014000a1130000a1130000a1130000a1130000df
:10015000a1130000a1130000000000000000000037
:10016000000000000000000000000000000000008f
:10017000000000000000000091060000a113000034
:10018000a1130000a1130000a1130000a11300009f
:1001900000000000a1130000a1130000a113000043
:1001a000a1130000a1130000a1130000a11300007f
:1001b000a1130000a1130000a1130000a11300006f
:1001c000a1130000a1130000a1130000a11300005f
:1001d000a1130000a1130000a1130000a11300004f
:1001e000a1130000a1130000a1130000a11300003f
:1001f000a1130000a1130000a1130000a11300002f
:10020000a11300000000000000000000a113000086
:10021000a1130000a1130000a1130000a11300000e
:10022000a1130000a1130000a1130000a1130000fe
:10023000a1130000a1130000a1130000a1130000ee
:10024000a1130000a1130000a1130000a1130000de
:10025000a1130000a1130000a1130000a1130000ce
:020000040000fa
:10026000f8b500bff8bc08bc9e467047ad10000052
:10027000f8b500bff8bc08bc9e4670478910000066
:020000040000fa
:1002800070b582b09f4b1b78a3b99f4b1b78002b96
:1002900040f08f819d4b1b78002b40f091819c4b4f
:1002a0001b78002b00f08a81994b00221a7000f015
:1002b0000bff83e1934b00221a70964b1b7b082b9c
:1002c00005d1944c221d04f10c05002103e000f03f
:1002d000fbfe73e1194612f8010b80ea0103dbb261
:1002e000aa42f7d1884223d18a4b1b798a4a1278d5
:1002f0009a4220d0884a1370864b03f114020433cb
:1003000093e8030082e80300844b5b78b3b9814b28
:100310005b79013b092b50d8dfe813f049006800f6
:1003200072007b009400ab00c500dc002e000801c9
:1003300000f0cafe42e100f0c7fe3fe10021774b2a
:100340005970a2f114030b225a75143304f11b02e5
:1003500013f8010b41409342fad16e4ad1766f4bac
:100360001878002300931432082100f5a07000f0e3
:100370008bfc00f0a9fe21e1684b93f871397bb149
:10038000674a0023674ea2f2516500bf52f8040b82
:10039000316841f82300013395f871198b42f5db80
:1003a000604b1b684ff05a32c3f8fc2305e05b4bef
:1003b000d3f80220574bc3f817205b4b04f11b0204
:1003c000002100bf13f8010b41409342fad1514a7a
:1003d000d176524b1878002300931432082100f58f
:1003e000a07000f051fc00f06ffee7e04b4bd3f83b
:1003f0000610484ac2f8171000229a71da71dce739
:10040000444a464b53f80a1fc2f816101b799376dc
:10041000d3e7404b9b79414a92f82f239a4209d95e
:1004200002333e4a02eb8303d3f80720394bc3f86b
:100430001720c2e7374b00225a7504229a75012211
:10044000da75bae7334b9b79344a92f850269a42d0
:1004500007d9cc33314a52f823202e4bc3f817204a
:10046000abe72c4b00225a7505229a750122da75ea
:10047000a3e7284b9b79294a92f871299a420ad915
:1004800003f5ca73254a02eb8303d3f80120214bfd
:10049000c3f8172091e71f4b00225a7506229a7560
:1004a0000122da7589e71b4b9b791c4a92f850268a
:1004b0009a4207d9cc33174ad2f81710174a42f894
:1004c00023107ae7134b00225a7507229a750122ee
:1004d000da7572e70f4b9b79104a92f871299a42ac
:1004e00008d90c4ad2f817100c4a02eb8303c3f860
:1004f000511662e7074b00225a7508229a750122ad
:10050000da755ae73d0c00203c0c00203b0c002023
:100510003a0c0020d80b0020380c002010000020de
:1005200061060020400c0020ec0b0020524bd3f859
:1005300074692eb3514b987928b14f4bdb7a012b5c
:100540002ed04d4b98724c4d0423eb7200232b732d
:100550006b734a498b7a00934b7a0a7ac979b04710
:10056000eb7a032b03d90322ea720522aa73434aca
:10057000414b53f80a1fc2f816101b7993761ce7fb
:100580003e4a917999720321d972002119735973e6
:1005900004219973d3f80a30c2f8163091760ce72b
:1005a000364b0322da7500221a765a7601229a76a1
:1005b00003e7334b00221a7000f086fd02b070bdd5
:1005c000304b00221a702d4b1b7b082b1bd12a4b62
:1005d00000225a70294b03f11402191d03c982e845
:1005e00003001b79012b11d0022b2fd0224b18783e
:1005f00000230093244a082100f5807000f044fb9a
:1006000000f062fddae700f05ffdd7e71a4b93f8e0
:100610007c3973b9194b00225a759a75da751a76b6
:10062000164b154a91785976d17899761279da76ff
:10063000dce7124b02225a750f4ad2f87829117959
:1006400099755179d97592791a76e9e70a4b93f839
:100650007c393bb9094bff221a7502225a750022d8
:100660009a75c3e7044b012283f87d2900210748ce
:1006700000f060febae700bf10000020d80b002099
:100680003c0c00203b0c0020ec0b0020950f0000e0
:020000040000fa
:100690002de9f04184b04ff084431d6d15f0007fcb
:1006a0001cbf4ff000721a6515f0010f60d04ff0bb
:1006b000844301221a655a6d22f001025a65d3f86b
:1006c000a43013f07f0f53d04ff08443d3f8a440ed
:1006d000c4f305244d4bda682301d718d15811f023
:1006e000804fd15804eb84004fea8000484e3058c8
:1006f00014bf21f06041c1f38a410160d2587b6888
:1007000013f4001f02d112f0005f76d104eb8403d2
:100710003f4a02eb83031b6900221a707e683d4b3f
:100720000fcb0df1100c0ce90f00c6f30346664425
:1007300016f8108c04eb8406354b03eb86067068c4
:10074000424607f1080100f09bfdb36883f8008082
:10075000f36813b17968f36819804ff08443c3f8e4
:10076000a8402d4b1b681bb12b4b1a68586890474b
:1007700015f4007f14d04ff084434ff400721a65d3
:100780005a6d22f400725a65002301264ff084420c
:1007900028e0214b9b691bb11f4b9a69d869904790
:1007a00015f4006f12d04ff084424ff400631365cc
:1007b000d2f8c430c3f30423d2f8c420c2f30442f5
:1007c000934203d20133dbb29a42fbd104b0bde8bd
:1007d000f081d2f8e00020ea0101c2f8e010013314
:1007e000102bd6d006fa03f1d2f8d840d2f8e000a8
:1007f0000842f4d00c42ecd1f1e704eb8403044a44
:1008000002eb83031b6901221a7087e7880b002023
:0c081000b00b002044130000f80b002087
:020000040000fa
:10081c002de9f84f8b46924698469df828709df826
:10082c002c609df830503f4bd3f800903e4c20701c
:10083c00012363703d4800f077faa770e6702571cc
:10084c000223e372002323736373a373a371e37115
:10085c002372637284f82fb384f850a6b8f1000f9a
:10086c0003d009f00f03012b13d02f4b002283f878
:10087c0071292d4a0d9bc2f874394ff00053c2f800
:10088c0078391b78112b2cd0274b002283f87c292c
:10089c003fe0c9f30219b9f1010fe6d184f871896f
:1008ac0000f05afd0028fbd1214b1968d1f8fc331c
:1008bc00b3f15a3f09d01f4b03eb8808002200bf4d
:1008cc0043f8042b4345fbd1d3e70b46194a01eb04
:1008dc00880800bf53f8041b42f8041b4345f9d1a8
:1008ec00c7e74ff000535b78822bcdd14ff000530c
:1008fc009b78132bc8d14ff00053db78842bc3d1da
:10090c00094b012283f87c294ff00053df711e72d2
:10091c005d72054b002283f87d2900f0cffbbde80a
:10092c00f88f00bf0440800010000020a0090020b8
:08093c00400c002061060020c0
:020000040000fa
:100944003b4b00221a7403f500633a4a9a621a4632
:10095400536813f0100ffbd1374b384a1a631a4609
:10096400536813f0400ffbd1334b4222c3f8842069
:100974001a4600bfd2f8843013f0400ffad0304b3f
:1009840000229a6377225a631a46d36b13f0040f3a
:10099400fbd12b4b022283f830201a46d36b13f081
:1009a400020ffbd1264a136c03f00303032bfad185
:1009b400244b01225a711a46d37813f0010ffbd04d
:1009c4001d4b214a1a621a46536813f0040ffbd1d7
:1009d400194b1e4a5a621a46536813f0080ffbd18a
:1009e400154b4422c3f8ec201a4600bfd2f8ec3071
:1009f40013f0400ffad0104b4122c3f820211a46bd
:100a0400d2f8203113f0400ffad00b4b4122c3f837
:100a140024211a46d2f8243113f0400ffad0094b9e
:100a24006ff07f421a6140f2ff725a61704700bf53
:100a34000014004006013000001c004006010200c2
:100a440000100040000800400701010007010200f7
:020000040000fa
:100a540008b5002000f0e4fb00212a4800f088fcdf
:100a640000f01afc00f0cafb274b4ff40002c3f855
:100a740094204ff48002c3f894204ff40031c3f85b
:100a840094104ff48030c3f894004ff40064c3f81a
:100a940094404ff48065c3f894504ff080725a61cb
:100aa40010269e615d615c614ff480545c61586105
:100ab40059610121c3f894100221c3f89410042150
:100ac400c3f894109a61114c1d4600f057fc23782a
:100ad40013f0020f1cbf23f002032370237813f0da
:100ae400040f1cbf23f004032370237813f0010fb9
:100af400ebd023f0010323704ff00043c5f89c3082
:100b0400e3e700bf39110000008000413f0c0020e2
:020000040000fa
:100b1400180c00201c00000000000000a0090020a8
:100b24009801000000000000d80b00202000000005
:100b340000000000100000208009000000000000f8
:100b4400380c00200600000000000000400c0020cb
:100b5400040000000100000000000044f80b002025
:100b64002000000000000000880b0020500000005e
:100b7400000000003e0c0020010000000000000006
:100b8400900900200c000000000000003f0c002031
:100b940001000000000000009c0900200400000087
:100ba40000000000380b002050000000000000008e
:100bb400340c0020040000000000000000000000cd
:100bc4000000000066666666666666666666666659
:020000040000fa
:100bd40010b4294b294a1a60402283f8442083f830
:100be4004a2083f84b20442183f84c10062083f8d4
:100bf4004d0083f84e0083f84f0083f8502083f8ab
:100c0400512083f85820002183f8321083f83510de
:100c140083f8361083f8371083f8381083f83c10c3
:100c2400174cc3f8804083f8c02083f8c12083f8b0
:100c3400c22083f8c30083f8c40083f8ca2083f871
:100c4400cb2083f8d02083f8d12083f8d62083f8f2
:100c5400d72083f8df2083f8b01083f8b11083f82d
:100c6400b21083f8b51083f8b81083f8bb1083f87a
:100c7400bf105df8044b704700800041101c030155
:040c8400070cc38016
:020000040000fa
:100c8800f8b59df818c0bcf1010f01d90020f8bdd6
:100c98004ff08443d3f8c43013f4001f3fd14ff012
:100ca8008443d3f8c440c4f304441e4b9f6926010f
:100cb800bd19b0f5006f26bf20f0604040f08040bd
:100cc8008004b8510b46082928bf08231804686017
:100cd8001cf0fd0f1ed111461a4605f1080000f060
:100ce800cbfa114a13780133dbb213706a6842ea0f
:100cf800036343f400036b60012000fa04f44ff02f
:100d08008443c3f8e040c3f8d0405a6d42f40072ff
:100d18005a65bce7bb5943f00053bb51e1e70020db
:0c0d2800b5e700bf880b00203e0c002047
:020000040000fa
:100d340038b504464ff4cc72002100f0cdfa4ff0e0
:100d44008442936943f001039361936913f0010fa3
:100d5400fbd04ff08442936943f002039361194b33
:100d6400dc60d96889b241f0004141f48031c2f8b5
:100d7400a01004f110019961996989b241f0805180
:100d8400c2f8c01004f58871d961d96989b241f4f7
:100d94008011c2f8f01004f5c8741c621d6a0a4c74
:100da40003cc286069601b6a9bb243f40033c2f829
:100db4008430936923f001039361936913f0010f65
:0c0dc400fbd138bd880b00208813000014
:020000040000fa
:100dd00008b5194b9847194b9847eff3108172b635
:100de000174ad2f8883043f47003c2f88830bff352
:100df0004f8fbff36f8f01b962b6124a936823f029
:100e0000010393601346da6812f0010ffbd10d4b1a
:100e100024225a6001229a6000f0aaf90a4b23f0ba
:100e20007f03074a9360094b9847094b9847094b42
:100e30009847fff70ffefee7a3130000a31300007f
:100e400000ed00e00060004100000000390f0000ec
:080e5000a3130000a31300002e
:020000040000fa
:100e580038b54ff0844301229a611a46936913f01a
:100e6800010ffbd04ff084439a6942f002029a6165
:100e7800144ada612b22c3f8802001221a629a6987
:100e880022f001029a611a46936913f0010ffbd10f
:100e98004ff0844300249c650122da654ff000720c
:100ea8005a65094d2c606c60ac60282221460748c1
:100eb80000f0fcf91c22214605f10c0000f0f6f9bf
:100ec80038bd00bf00050200880b0020b00b0020d1
:020000040000fa
:100ed800154bda6822f4e0621204120c42f0bf6289
:100ee80042f40032da60bff35f8f62b60f4ae02146
:100ef80082f80b134ff40060106082f84e134ff421
:100f0800804191605a6a42f480225a625a6942f0da
:100f180010025a615a6a42f400325a625a6a42f41a
:100f280080325a62704700bf00ed00e000e100e047
:020000040000fa
:100f38000e4a38b5002313600d4a0e4c13600e4a52
:100f48000e4d13600e4a13600e4a13600e4a536228
:100f580013610123936000f021fa00f01ffaac42fc
:100f680000d338bd54f8043b9847f8e7340c002008
:100f7800440b00206c020000400b002070020000af
:0c0f8800380b00203c0b0020480b002020
:020000040000fa
:100f9400124b93f87d3903b97047104b002283f844
:100fa4007d29d3f8782901211170d3f878290221f9
:100fb4005170d3f8782903219170d3f87839042239
:100fc400da70bff34f8f0649ca6802f4e062054b3a
:100fd4001343cb60bff34f8f00bffde71000002029
:080fe40000ed00e00400fa0535
:020000040000fa
:100fec00124b01221a801a46136913f0010ffbd120
:100ffc000e4b4ff401421a801a46136913f4004f3a
:10100c00fbd10a4b00221a621a46136913f0200f07
:10101c00fbd1064b00225a621a46136913f0400f9b
:10102c00fbd1024b83225a81704700bf0024004041
:020000040000fa
:10103c00f0b59df81440ecb94ff0844cdcf8a4509a
:10104c00c5f305250c4cae007719bf0004eb070e59
:10105c00e051cef80420cef80810cef80c30069be8
:10106c00cef81030dcf8543043f00103ccf8543097
:0c107c00012000e00020f0bdb00b0020bf
:020000040000fa
:1010880010b5054c227832b9044b13b10448aff3bc
:1010980000800123237010bd180c00200000000000
:1010a8000000000008b5034b1bb103490348aff328
:1010b800008008bd000000001c0c0020000000009b
:020000040000fa
:1010c80000b583b000221146084800f0c7f8084868
:1010d800084b01930023009300f10e03021d00f159
:1010e8000c01fff7a7ff03b05df804fb0111000036
:0810f800d80b0020390c002088
:020000040000fa
:1011000008b500f04ff810f0070001d0072809d10a
:10111000064b1b68b3f5a07f2cbf054b054b012286
:101120001a7008bdfff7d0fffbe700bfd80b002007
:081130003d0c00203b0c0020e7
:020000040000fa
:1011380010f0010f04d00b4a137843f00203137028
:1011480010f0020f04d0074a137843f00403137019
:1011580010f0800f04d0034a137843f00103137092
:08116800704700bf3f0c00209e
:020000040000fa
:1011700070b50a480a4d4ff6ff76016811b9436809
:1011800003b970bd83684268334000f10c0455f820
:1011900023302046984704eb8000eee7140b000054
:0411a000c812000071
:020000040000fa
:1011a4004ff08443586c20f4605020f01800400441
:1011b400400c9b6913f0010f09d04ff084429369ee
:1011c40023f001039361936913f0010ffbd170477e
:020000040000fa
:1011d40008b5084b9a8992b207494a604cf2ff322b
:1011e4009a819b890b6823b10b46486889681b6800
:0c11f400984708bd00240040900900202e
:020000040000fa
:1012000000b585b0064b03930121029100220192a3
:10121000009113461620fff701fb05b05df804fbb3
:04122000f1120000c7
:020000040000fa
:1012240008b500f095f8fff7d3fcfff789fb00f051
:1012340016f8fff70ffefff7d7fefff74bfe08bdca
:020000040000fa
:1012440010b50023934206d113f0030018bf012008
:0e12540000eb930010bdc45ccc540133f2e7f4
:020000040000fa
:021262007047d3
:020000040000fa
:1012640010b428b1044b43f8320003ebc2035960b5
:0c1274005df8044b704700bff80b002031
:020000040000fa
:101280005ab110b40a44431e11f8014b03f8014f40
:0c1290009142f9d15df8044b70477047a3
:020000040000fa
:10129c00044a138843f002031380136913f0020ffe
:0812ac00fbd170470024004053
:020000040000fa
:1012b4003ab18218c9b2034603f8011b18469a4290
:0412c400f9d17047a5
:020000040000fa
:1012c8000313000045120000911300009113000061
:0412d800911300006e
:020000040000fa
:1012dc0032b1c9b20244034603f8011b9342fbd15d
:0412ec00704700bf88
:020000040000fa
:1012f00008b510b900f016f808bd042000f00af88f
:02130000fae70a
:020000040000fa
:101302000a440023914201d10020704701f8013bb9
:02131200f8e7fa
:020000040000fa
:10131400024b0322da729873704700bf100000205a
:020000040000fa
:10132400024b0322da7206229a73704710000020df
:020000040000fa
:1013340010b1024b9861d961704700bff80b0020cf
:020000040000fa
:101344000001020304050607080c1014182030409d
:020000040000fa
:10135400024b40f204521a80704700bf0040004123
:020000040000fa
:10136400024bd86ac0f38000704700bf00400041c0
:020000040000fa
:0c137400014b1860996070479009002040
:020000040000fa
:0813800008b5fef77dff08bd72
:020000040000fa
:08138800560156091601160971
:020000040000fa
:041390000020704782
:020000040000fa
:02139400fee772
:020000040000fa
:02139600fee770
:020000040000fa
:02139800fee76e
:020000040000fa
:02139a00fee76c
:020000040000fa
:02139c00fee76a
:020000040000fa
:02139e00fee768
:020000040000fa
:0213a000fee766
:020000040000fa
:0213a200704792
:020000040000fa
:0213a400704790
:020000040000fa
:0200000400807a
:044000003912003c35
:020000040000fa
:0200000400807a
:044004008000a82a66
:020000040000fa
:0200000400807a
:04400800ffffffffb8
:00000001FF
