:020000040000fa
:10000000f8ff03200d1000007119000073190000a3
:1000100077190000791900007b190000000000002a
:100020000000000000000000000000008b1700002e
:1000300075190000000000008b1700008b170000ee
:100040008b1700008b1700008b1700008b17000028
:100050008b1700008b1700008b1700008b17000018
:100060008b1700008b1700008b170000451700004e
:100070008b1700008b1700008b1700008b170000f8
:100080008b1700008b1700008b1700008b170000e8
:100090008b1700008b1700008b1700008b170000d8
:1000a0008b1700008b1700008b1700008b170000c8
:1000b0008b1700008b1700008b1700008b170000b8
:1000c0008b1700008b1700008b1700008b170000a8
:1000d0008b1700008b1700008b1700008b17000098
:1000e0008b1700008b1700000000000000000000cc
:1000f000000000008b1700008b1700008b1700001a
:100100008b1700008b1700008b1700008b17000067
:100110008b1700008b1700008b1700008b17000057
:100120008b1700008b1700008b1700008b17000047
:100130008b1700008b17000091060000910600004d
:1001400091060000910600008b1700008b1700003d
:100150008b1700008b17000000000000000000005b
:10016000000000000000000000000000000000008f
:100170000000000000000000490800008b1700008c
:100180008b1700008b1700008b1700008b170000e7
:10019000000000008b1700008b1700008b17000079
:1001a0008b1700008b1700008b1700008b170000c7
:1001b0008b1700008b1700008b1700008b170000b7
:1001c0008b1700008b1700008b1700008b170000a7
:1001d0008b1700008b1700008b1700008b17000097
:1001e0008b1700008b1700008b170000c51600004e
:1001f0008b1700008b1700008b1700008b17000077
:100200008b17000000000000000000008b170000aa
:100210008b1700008b1700008b1700006d16000075
:100220008b170000991600008b1700008b17000039
:100230008b1700008b1700008b1700008b17000036
:100240008b1700008b1700008b1700008b17000026
:100250008b1700008b1700008b1700008b17000016
:020000040000fa
:10026000f8b500bff8bc08bc9e467047c514000036
:10027000f8b500bff8bc08bc9e467047a11400004a
:020000040000fa
:1002800070b582b09f4b1b78a3b99f4b1b78002b96
:1002900040f08f819d4b1b78002b40f091819c4b4f
:1002a0001b78002b00f08a81994b00221a7001f014
:1002b00055f983e1934b00221a70964b1b7b082b58
:1002c00005d1944c221d04f10c05002103e001f03e
:1002d00045f973e1194612f8010b80ea0103dbb21c
:1002e000aa42f7d1884223d18a4b1b798a4a1278d5
:1002f0009a4220d0884a1370864b03f114020433cb
:1003000093e8030082e80300844b5b78b3b9814b28
:100310005b79013b092b50d8dfe813f049006800f6
:1003200072007b009400ab00c500dc002e000801c9
:1003300001f014f942e101f011f93fe10021774b9e
:100340005970a2f114030b225a75143304f11b02e5
:1003500013f8010b41409342fad16e4ad1766f4bac
:100360001878002300931432082100f5a07000f0e3
:1003700065fd01f0f3f821e1684b93f871397bb129
:10038000674a0023674ea2f2516500bf52f8040b82
:10039000316841f82300013395f871198b42f5db80
:1003a000604b1b684ff05a32c3f8fc2305e05b4bef
:1003b000d3f80220574bc3f817205b4b04f11b0204
:1003c000002100bf13f8010b41409342fad1514a7a
:1003d000d176524b1878002300931432082100f58f
:1003e000a07000f02bfd01f0b9f8e7e04b4bd3f81b
:1003f0000610484ac2f8171000229a71da71dce739
:10040000444a464b53f80a1fc2f816101b799376dc
:10041000d3e7404b9b79414a92f82f239a4209d95e
:1004200002333e4a02eb8303d3f80720394bc3f86b
:100430001720c2e7374b00225a7504229a75012211
:10044000da75bae7334b9b79344a92f850269a42d0
:1004500007d9cc33314a52f823202e4bc3f817204a
:10046000abe72c4b00225a7505229a750122da75ea
:10047000a3e7284b9b79294a92f871299a420ad915
:1004800003f5ca73254a02eb8303d3f80120214bfd
:10049000c3f8172091e71f4b00225a7506229a7560
:1004a0000122da7589e71b4b9b791c4a92f850268a
:1004b0009a4207d9cc33174ad2f81710174a42f894
:1004c00023107ae7134b00225a7507229a750122ee
:1004d000da7572e70f4b9b79104a92f871299a42ac
:1004e00008d90c4ad2f817100c4a02eb8303c3f860
:1004f000511662e7074b00225a7508229a750122ad
:10050000da755ae7190b0020180b0020170b002092
:10051000160b00208c0a0020140b00201000002075
:10052000610600201c0b0020a00a0020524bd3f8cb
:1005300074692eb3514b987928b14f4bdb7a012b5c
:100540002ed04d4b98724c4d0423eb7200232b732d
:100550006b734a498b7a00934b7a0a7ac979b04710
:10056000eb7a032b03d90322ea720522aa73434aca
:10057000414b53f80a1fc2f816101b7993761ce7fb
:100580003e4a917999720321d972002119735973e6
:1005900004219973d3f80a30c2f8163091760ce72b
:1005a000364b0322da7500221a765a7601229a76a1
:1005b00003e7334b00221a7000f0d0ff02b070bd89
:1005c000304b00221a702d4b1b7b082b1bd12a4b62
:1005d00000225a70294b03f11402191d03c982e845
:1005e00003001b79012b11d0022b2fd0224b18783e
:1005f00000230093244a082100f5807000f01efcbf
:1006000000f0acffdae700f0a9ffd7e71a4b93f848
:100610007c3973b9194b00225a759a75da751a76b6
:10062000164b154a91785976d17899761279da76ff
:10063000dce7124b02225a750f4ad2f87829117959
:1006400099755179d97592791a76e9e70a4b93f839
:100650007c393bb9094bff221a7502225a750022d8
:100660009a75c3e7044b012283f87d2900210748ce
:1006700001f03cf9bae700bf100000208c0a00200e
:10068000180b0020170b0020a00a002025130000e3
:020000040000fa
:100690004ff086439b7d002b00f0d38010b54ff0c8
:1006a00086435b8b13f0020f16d0664bff2283f854
:1006b0002020022283f82120624b93f820305bb285
:1006c000b3f1ff3f00f08a805e4b93f820305bb2bd
:1006d000062b00f09d8010bd4ff086435b8b13f01e
:1006e000010f07d0574bff2283f82020022283f806
:1006f0002120e1e74ff086435b8b13f0040f07d016
:10070000504bff2283f82020012283f82120d3e7d9
:100710004c4b93f820305bb2032b41d0042b10d00c
:10072000022bc9d1474b1b692bb10021454b98883f
:1007300000f04afec0e70121424b988800f044fed9
:10074000bae7404a93691269934208d03d4a9168da
:10075000581c9061ca5c4ff086439a62ace7394bf3
:100760005b697bb1374b9b885b0043f001034ff023
:1007700086425362d369002bfcd1324b032283f8ab
:10078000202099e74ff08642536843f4403353608a
:10079000d369002bfcd12b4b062283f820208be75a
:1007a000284a5369013bd2699a4209d04ff08643e7
:1007b000986a244bd968da69541cdc6188547be759
:1007c0004ff08642536843f4e0235360d369002b13
:1007d000fcd11c4b062283f82020e7e7194b0022ae
:1007e00083f820204ff08642536843f4403353602f
:1007f000d369002bfcd14ff0864383221a76114b2c
:100800005b6a002b3ff467af0e4a906a984762e735
:100810000c4b002283f8202083f821204ff08643e0
:1008200083221a761a46538b03f03003102bfad129
:10083000044b5b6a002b3ff44eaf024a906a984724
:0808400049e77047100a00208f
:020000040000fa
:100848002de9f04784b04ff084431c6d14f0007f0d
:100858001cbf4ff000721a6514f0010f62d04ff000
:10086800844301221a655a6d22f001025a65d3f8b1
:10087800a43013f07f0f55d04ff08443d3f8a45021
:10088800c5f305252b014a4ad268d718d15811f06b
:10089800804fd15805eb8500464e56f8200014bf0e
:1008a80021f06041c1f38a410160d2587b6813f49a
:1008b800001f02d112f0005f71d105eb85033d4a9c
:1008c80002eb83031b6900221a707e683a4b0fcb38
:1008d8000df1100c0ce90f00c6f30346664416f838
:1008e80010ac344e4fea850808eb050906eb890978
:1008f800524607f10801d9f8040000f051ffd9f871
:10090800083083f800a0d9f80c300bb17a681a8047
:100918004ff08443c3f8a850284b1b6813b1274aeb
:100928005068984714f4007f20d04ff084434ff468
:1009380000721a655a6d22f400725a65d3f8d820ed
:10094800d3f8e03013f0010f0ad012f0010f07d0ee
:100958004ff08442d2f8e03023f00103c2f8e030cf
:10096800164b9b6913b1154ad069984714f4006f68
:1009780012d04ff084424ff400631365d2f8c430ac
:10098800c3f30423d2f8c420c2f30442934203d22f
:100998000133dbb29a42fbd104b0bde8f08705eb26
:1009a8008503044a02eb83031b6901221a708ce752
:1009b8003c0a0020640a0020fc180000ac0a002051
:020000040000fa
:1009c800504b00221a7403f500634f4a5a621a46c4
:1009d800536813f0080ffbd14c4b4d4a9a621a46e4
:1009e800536813f0100ffbd1484b4a4a1a631a4652
:1009f800536813f0400ffbd1444b4222c3f88420c4
:100a08001a4600bfd2f8843013f0400ffad0424b98
:100a180000229a6377225a631a46d36b13f0040fa5
:100a2800fbd13d4b022283f830201a46d36b13f0da
:100a3800020ffbd1384a136c03f00303032bfad1de
:100a4800364b01225a711a46d37813f0010ffbd0a6
:100a58002e4b334a1a621a46536813f0040ffbd11f
:100a68002a4b4122c3f8a4201a4600bfd2f8a4306a
:100a780013f0400ffad0254b4422c3f8ec201a4655
:100a8800d2f8ec3013f0400ffad0204b4122c3f8d3
:100a9800f4201a46d2f8f43013f0400ffad01b4b6a
:100aa8004122c3f808211a46d2f8083113f0400f42
:100ab800fad0164b4122c3f820211a46d2f8203129
:100ac80013f0400ffad0114b4122c3f824211a46e3
:100ad800d2f8243113f0400ffad00c4b4122c3f85e
:100ae80028211a46d2f8283113f0400ffad00b4bc0
:100af8006ff07f421a6144f2ff725a6140f281320c
:100b08001a6270470014004006010100001c0040f2
:100b180006013000060102000010004000080040f5
:040b280007010100c0
:020000040000fa
:100b2c002de9f84f8b46924698469df828709df813
:100b3c002c609df830503f4bd3f800903e4c207009
:100b4c00012363703d4800f013faa770e67025711d
:100b5c000223e372002323736373a373a371e37102
:100b6c002372637284f82fb384f850a6b8f1000f87
:100b7c0003d009f00f03012b13d02f4b002283f865
:100b8c0071292d4a0d9bc2f874394ff00053c2f8ed
:100b9c0078391b78112b2cd0274b002283f87c2919
:100bac003fe0c9f30219b9f1010fe6d184f871895c
:100bbc0000f0aefe0028fbd1214b1968d1f8fc33b4
:100bcc00b3f15a3f09d01f4b03eb8808002200bf3a
:100bdc0043f8042b4345fbd1d3e70b46194a01ebf1
:100bec00880800bf53f8041b42f8041b4345f9d195
:100bfc00c7e74ff000535b78822bcdd14ff00053f9
:100c0c009b78132bc8d14ff00053db78842bc3d1c6
:100c1c00094b012283f87c294ff00053df711e72bf
:100c2c005d72054b002283f87d2900f091fcbde834
:100c3c00f88f00bf0440800010000020e009002065
:080c4c001c0b002061060020d2
:020000040000fa
:100c540030b43e4b3e4a1a60402283f8422083f867
:100c6400432083f84420412483f8454083f84620f8
:100c740083f84720442183f8481083f8494083f8d7
:100c84004a2083f84b2083f84c20422183f84d10ee
:100c940083f84e1083f84f1083f8502083f85120c6
:100ca40083f8521083f85310022083f8540083f819
:100cb4005500012083f8560083f8570083f8582024
:100cc40083f8592083f85b20102083f8320083f8de
:100cd4003400882583f83b501e4dc3f880504ff4f0
:100ce4004055c3f8905083f8c02083f8c12083f89e
:100cf400c22083f8c31083f8c41083f8c54083f876
:100d0400c62083f8c72083f8c81083f8c91083f875
:100d1400ca2083f8cb20452183f8cc1083f8cd106a
:100d240083f8ce2083f8cf2083f8d02083f8d12015
:100d340083f8d62083f8d72083f8df2083f8b20025
:100d4400222283f8b62030bc704700bf00800041e7
:080d54009c1d030be7ccc380da
:020000040000fa
:100d5c00cc0a00201c00000000000000e00900206c
:100d6c0030000000000000008c0a00202000000071
:100d7c0000000000100000208009000000000000ae
:100d8c00140b002006000000000000001c0b0020cb
:100d9c00040000000100000000000044f40a0020e0
:100dac001000000000000000ac0a00202000000031
:100dbc00000000003c0a0020500000000000000071
:100dcc001a0b00200100000000000000e80a0020bf
:100ddc000c00000000000000100a00202c00000095
:100dec0000000000040b00200800000000000000c0
:100dfc001b0b002001000000000000000c0b002069
:100e0c0004000000000000009009002050000000c9
:100e1c0000000000100b0020040000000000000087
:100e2c000000000000000000666666666666666686
:020000040000fa
:100e3c00f8b59df818c0bcf1010f01d90020f8bd20
:100e4c004ff08443d3f8c43013f4001f3fd14ff05c
:100e5c008443d3f8c440c4f3044426011d4b9f695a
:100e6c00bd19b0f5006f26bf20f0604040f0804007
:100e7c008004b8510b46082928bf08231804686061
:100e8c001cf0fd0f1ed111461a4605f1080000f0aa
:100e9c0085fc114a13780133dbb213706a6842ea9d
:100eac00036343f400036b60012000fa04f44ff079
:100ebc008443c3f8e040c3f8d0405a6d42f400724a
:100ecc005a65bce7bb5943f00053bb51e1e7002026
:0c0edc00b5e700bf3c0a00201a0b002004
:020000040000fa
:100ee80008b5002000f08afb00f0b0fc00211e4885
:100ef80000f024fd00f092fc00f00cfc00f0f4fb84
:100f080000f03afd00f0aefc00f038fd174c184e2a
:100f18004ff0004503e0237813f0080f1cd100f0d0
:100f280019fd237813f0010f05d0237803f0fe0391
:100f38002370c6f89c50237813f0020f03d023784f
:100f480003f0fd032370237813f0040fe3d0237814
:100f580003f0fb032370dee7237803f0f703237025
:100f680000f009fddbe700bf151400001b0b002093
:040f780000800041b4
:020000040000fa
:100f7c0038b504463022002100f086fc4ff0844343
:100f8c0001229a611a46936913f0010ffbd04ff0be
:100f9c0084439a6942f002029a611749cc60a2b26a
:100fac0042f0004242f48032c3f8a02004f1100257
:100fbc008a6192b242f08072c3f8c02004f1200220
:100fcc00ca6192b242f48032c3f8f02004f12802d4
:100fdc000a620a4d03cda062e16292b242f4003281
:100fec00c3f884209a6922f001029a611a46936927
:100ffc0013f0010ffbd138bd3c0a0020641900002e
:020000040000fa
:10100c0008b51b4b98471b4b9847eff3108172b6f2
:10101c00194ad2f8883043f47003c2f88830bff311
:10102c004f8fbff36f8f01b962b6144c20236360ee
:10103c0000f0fcfa124b23f07f030f4a9360114b24
:10104c009847a36823f00103a3602346da6812f0e3
:10105c00010ffbd1094b5a6842f004025a6001227d
:10106c009a60094b9847094b9847fff737fffee703
:10107c007d1900007d19000000ed00e000600041ca
:10108c0000000000c91200007d1900007d1900004d
:020000040000fa
:10109c0038b54ff0844301229a611a46936913f0d4
:1010ac00010ffbd04ff084439a6942f002029a611f
:1010bc00144ada612b22c3f8802001221a629a6941
:1010cc0022f001029a611a46936913f0010ffbd1c9
:1010dc004ff0844300249c650122da654ff00072c6
:1010ec005a65094d2c606c60ac602822214607487b
:1010fc0000f0cafbec602c616c61ac61ec612c62a1
:10110c006c6238bd000502003c0a0020640a002015
:020000040000fa
:10111c001c4ad36823f4e0631b041b0c43f0bf632d
:10112c0043f40033d360bff35f8f62b6164be022fb
:10113c0083f80b234ff40061196083f83e234ff0c2
:10114c008040586083f83f234ff00040586083f88c
:10115c0040230120986083f841230220986083f893
:10116c004e234ff48040986083f86b23d96083f84a
:10117c0077234ff40001d96083f879234ff0007284
:0c118c00da60704700ed00e000e100e0d8
:020000040000fa
:10119800184b01221a801a46136b13f0010ffbd16a
:1011a8004ff080131b681a0902f07002d90001f48d
:1011b800e061c3f382030a431a430e4ba3f84820a5
:1011c8004ff400721a801f22da7203221a7241f653
:1011d80009029a800b22da8004229a72072283f885
:1011e8002e20012283f82d201a46136b002bfcd1e8
:0811f800704700bf001c00431a
:020000040000fa
:10120000174b01221a801a46136b13f0010ffbd102
:101210004ff080131b689a0c02f07002d90a01f497
:10122000e061c3f302430a431a430d4ba3f848207d
:1012300000221a800122da720321197241f6070195
:1012400099800b21d98004219972072183f82e10ef
:1012500083f82d201a46136b002bfcd1704700bf7a
:041260000020004327
:020000040000fa
:101264004ff0864301221a601a46d369002bfcd141
:101274004ff086434ff480725a601a46d369002bac
:10128400fcd14ff08643e822da600c4a1a601a4611
:10129400d369002bfcd14ff0864310225a831a469f
:1012a400d369002bfcd1064b002283f8212083f85c
:1012b40020204ff0864383229a75704796002000c1
:0412c400100a0020ec
:020000040000fa
:1012c8000e4a38b5002313600d4a0e4c13600e4abf
:1012d8000e4d13600e4a13600e4a13600e4a536295
:1012e80013610123936000f04cfb00f04afbac4211
:1012f80000d338bd54f8043b9847f8e7100b00209a
:101308009c0900206c02000098090020700200006f
:0c1318009009002094090020a00900208a
:020000040000fa
:10132400124b93f87d3903b97047104b002283f8b0
:101334007d29d3f8782901211170d3f87829022165
:101344005170d3f8782903219170d3f878390422a5
:10135400da70bff34f8f0649ca6802f4e062054ba6
:101364001343cb60bff34f8f00bffde71000002095
:0813740000ed00e00400fa05a1
:020000040000fa
:10137c00f0b59df81440ecb94ff0844cdcf8a45057
:10138c00c5f305250c4cae007719bf0004eb070e16
:10139c00e051cef80420cef80810cef80c30069ba5
:1013ac00cef81030dcf8543043f00103ccf8543054
:0c13bc00012000e00020f0bd640a0020c9
:020000040000fa
:1013c800114b00229a61da614ff0864383221a7624
:1013d8005a6822f480225a601a46d369002bfcd13d
:1013e80069b1094b032283f8202041ea40014ff0fc
:1013f800864359621a46d369002bfcd17047024bc9
:0c140800042283f82020f0e7100a0020e6
:020000040000fa
:1014140010f0010f04d00f4a137843f00403137043
:1014240010f0020f04d00b4a137843f00803137032
:1014340010f0400f04d0074a137843f002031370ee
:1014440010f0800f04d0034a137843f001031370a3
:08145400704700bf1b0b0020d4
:020000040000fa
:10145c000f4b01221a801a46136913f0010ffbd1ae
:10146c000b4b4ff401421a8000221a621a46136980
:10147c0013f0200ffbd1064b00225a621a46136957
:10148c0013f0400ffbd1024bc3225a81704700bfaf
:04149c0000240040e8
:020000040000fa
:1014a00010b5054c227832b9044b13b10448aff3a0
:1014b00000800123237010bdcc0a00200000000032
:1014c0000000000008b5034b1bb103490348aff30c
:1014d000008008bd00000000d00a002000000000cd
:020000040000fa
:1014e0000d4b01221a601a46136913f0010ffbd14c
:1014f000094b10221a6003221a734ff4f0729a8378
:1015000033229a72054a0021116001225a721a464a
:101510001369002bfcd1704700380040040b0020f9
:020000040000fa
:101520004ff08443586c20f4605020f018004004c1
:10153000400c9b6913f0010f0ed04ff084439a6961
:1015400042f002029a619a6922f001029a611a46f7
:0a155000936913f0010ffbd17047ff
:020000040000fa
:02155a007047d8
:020000040000fa
:10155c0000b583b000221146084800f011f9084884
:10156c00084b01930023009300f10e03021d00f1c0
:10157c000c01fff7fdfe03b05df804fb95150000b0
:08158c008c0a0020150b002061
:020000040000fa
:1015940008b5fff7c3ff10f0070001d0072809d1f1
:1015a400064b1b68b3f5a07f2cbf054b054b0122ee
:1015b4001a7008bdfff7d0fffbe700bf8c0a0020bc
:0815c400190b0020170b002099
:020000040000fa
:1015cc000c4b01221a701a7812f0010f03d09a6892
:1015dc0012f0010ff7d1074b06225a704b229a8159
:1015ec001a7842f002021a701a46936813f0020f2e
:0815fc00fbd1704700240043fd
:020000040000fa
:1016040008b500f081f9fff723fbfff7dbf9fff7db
:1016140065fffff7a0fffff7bdfdfff73dfdfff7f7
:10162400edfdfff71dfefff717fffff7cdfffff7f7
:0416340073fd08bd7d
:020000040000fa
:1016380070b50a480a4d4ff6ff76016811b943683c
:1016480003b970bd83684268334000f10c0455f853
:1016580023302046984704eb8000eee75c0d00003d
:0416680080180000e6
:020000040000fa
:10166c0008b5084b93f82e00012283f82e20064b68
:10167c001b682bb1c0b2044a516800f001009847b6
:0c168c0008bd00bf001c0043f40a002051
:020000040000fa
:1016980008b5084b93f82e00012283f82e20064b3c
:1016a8001b682bb1c0b2044a516800f0010098478a
:0c16b80008bd00bf00200043fc0a002019
:020000040000fa
:1016c40008b5084b5b7a63b1064a937a3321917269
:1016d40003f0ff002bb1044b1b6813b1024a51689d
:0c16e400984708bd00380040040b0020af
:020000040000fa
:1016f00008b50021074800f019f900f063f800f080
:101700006df80021044800f017f900f073f800f0bc
:0c1710007df808bd871900008919000051
:020000040000fa
:10171c0000b585b0074b039301230293002201927d
:10172c000093134603211220fff7faf905b05df878
:08173c0004fb00bfa918000026
:020000040000fa
:1017440008b5074a908980b2064b58604cf2ff31c5
:1017540091811b6813b1034a9168984708bd00bf83
:0817640000240040e80a002007
:020000040000fa
:10176c0010b50023934206d113f0030018bf0120db
:0e177c0000eb930010bdc45ccc540133f2e7c7
:020000040000fa
:02178a00fee778
:020000040000fa
:10178c0010b428b1044b43f8320003ebc203596088
:0c179c005df8044b704700bfac0a002051
:020000040000fa
:1017a8005ab110b40a44431e11f8014b03f8014f13
:0c17b8009142f9d15df8044b7047704776
:020000040000fa
:1017c400044a138843f002031380136b002bfcd1eb
:0817d400704700bf001c004338
:020000040000fa
:1017dc00044a137d43f002031375136b13f4006f6b
:0817ec00fbd17047001c004313
:020000040000fa
:1017f400044a138843f002031380136b002bfcd1bb
:08180400704700bf0020004303
:020000040000fa
:10180c00044a137d43f002031375136b13f4006f3a
:08181c00fbd1704700200043de
:020000040000fa
:10182400044a138843f002031380136913f0020f70
:08183400fbd1704700240040c5
:020000040000fa
:10183c00044a136843f002031360136913f0020f98
:08184c00fbd170470038004099
:020000040000fa
:10185400044b9b6813f0100f02d1024ba5221a739c
:08186400704700bf00200040a6
:020000040000fa
:10186c0008b50021024800f06df8fff7e1ff08bd54
:04187c0083190000cc
:020000040000fa
:10188000bb1800006d1700006d1900006d190000f5
:041890006d190000ce
:020000040000fa
:1018940032b1c9b20244034603f8011b9342fbd19f
:0418a400704700bfca
:020000040000fa
:1018a80008b510b900f016f808bd042000f00af8d1
:0218b800fae74d
:020000040000fa
:1018ba000a440023914201d10020704701f8013bfc
:0218ca00f8e73d
:020000040000fa
:1018cc00024b0322da729873704700bf100000209d
:020000040000fa
:1018dc00024b0322da7206229a7370471000002022
:020000040000fa
:1018ec0010b1024b9861d961704700bfac0a00205f
:020000040000fa
:1018fc000001020304050607080c101418203040e0
:020000040000fa
:10190c00024b40f204521a80704700bf0040004165
:020000040000fa
:10191c00024bd86ac0f38000704700bf0040004102
:020000040000fa
:0c192c00014b186059607047f40a00205d
:020000040000fa
:0c193800014b186059607047fc0a002049
:020000040000fa
:0c194400014b186099607047e80a002011
:020000040000fa
:0c195000014b186059607047040b002028
:020000040000fa
:08195c0008b5fef78ffc08bd81
:020000040000fa
:08196400590159091901190983
:020000040000fa
:04196c0000207047a0
:020000040000fa
:02197000fee790
:020000040000fa
:02197200fee78e
:020000040000fa
:02197400fee78c
:020000040000fa
:02197600fee78a
:020000040000fa
:02197800fee788
:020000040000fa
:02197a00fee786
:020000040000fa
:02197c007047b2
:020000040000fa
:02197e007047b0
:020000040000fa
:021980007047ae
:020000040000fa
:021982007047ac
:020000040000fa
:021984007047aa
:020000040000fa
:021986007047a8
:020000040000fa
:021988007047a6
:020000040000fa
:02198a007047a4
:00000001FF
